{
  "contractName": "VoteTracker",
  "abi": [
    {
      "anonymous": false,
      "inputs": [
        {
          "indexed": false,
          "internalType": "string",
          "name": "add",
          "type": "string"
        },
        {
          "indexed": false,
          "internalType": "string",
          "name": "adhaarNumber",
          "type": "string"
        },
        {
          "indexed": false,
          "internalType": "string",
          "name": "email",
          "type": "string"
        }
      ],
      "name": "IdentityCreate",
      "type": "event"
    },
    {
      "anonymous": false,
      "inputs": [
        {
          "indexed": false,
          "internalType": "string",
          "name": "name",
          "type": "string"
        },
        {
          "indexed": false,
          "internalType": "uint256",
          "name": "voteCount",
          "type": "uint256"
        }
      ],
      "name": "PartyCreate",
      "type": "event"
    },
    {
      "anonymous": false,
      "inputs": [
        {
          "indexed": false,
          "internalType": "uint256",
          "name": "voteCount",
          "type": "uint256"
        },
        {
          "indexed": false,
          "internalType": "uint256",
          "name": "time",
          "type": "uint256"
        },
        {
          "indexed": false,
          "internalType": "string",
          "name": "partyName",
          "type": "string"
        },
        {
          "indexed": false,
          "internalType": "string",
          "name": "adhaar",
          "type": "string"
        },
        {
          "indexed": false,
          "internalType": "string",
          "name": "constituency",
          "type": "string"
        }
      ],
      "name": "VoteGenerate",
      "type": "event"
    },
    {
      "constant": true,
      "inputs": [
        {
          "internalType": "uint256",
          "name": "",
          "type": "uint256"
        }
      ],
      "name": "IdentityStore",
      "outputs": [
        {
          "internalType": "string",
          "name": "add",
          "type": "string"
        },
        {
          "internalType": "string",
          "name": "adhaarNumber",
          "type": "string"
        },
        {
          "internalType": "string",
          "name": "email",
          "type": "string"
        }
      ],
      "payable": false,
      "stateMutability": "view",
      "type": "function"
    },
    {
      "constant": true,
      "inputs": [
        {
          "internalType": "uint256",
          "name": "",
          "type": "uint256"
        }
      ],
      "name": "PartyStore",
      "outputs": [
        {
          "internalType": "string",
          "name": "name",
          "type": "string"
        },
        {
          "internalType": "uint256",
          "name": "voteCount",
          "type": "uint256"
        }
      ],
      "payable": false,
      "stateMutability": "view",
      "type": "function"
    },
    {
      "constant": true,
      "inputs": [
        {
          "internalType": "uint256",
          "name": "",
          "type": "uint256"
        }
      ],
      "name": "VoteStore",
      "outputs": [
        {
          "internalType": "uint256",
          "name": "id",
          "type": "uint256"
        },
        {
          "internalType": "uint256",
          "name": "time",
          "type": "uint256"
        },
        {
          "internalType": "string",
          "name": "PartyName",
          "type": "string"
        },
        {
          "internalType": "string",
          "name": "adhaar",
          "type": "string"
        },
        {
          "internalType": "string",
          "name": "constituency",
          "type": "string"
        }
      ],
      "payable": false,
      "stateMutability": "view",
      "type": "function"
    },
    {
      "constant": true,
      "inputs": [],
      "name": "identityCount",
      "outputs": [
        {
          "internalType": "uint256",
          "name": "",
          "type": "uint256"
        }
      ],
      "payable": false,
      "stateMutability": "view",
      "type": "function"
    },
    {
      "constant": true,
      "inputs": [],
      "name": "partyCount",
      "outputs": [
        {
          "internalType": "uint256",
          "name": "",
          "type": "uint256"
        }
      ],
      "payable": false,
      "stateMutability": "view",
      "type": "function"
    },
    {
      "constant": true,
      "inputs": [],
      "name": "secret",
      "outputs": [
        {
          "internalType": "string",
          "name": "",
          "type": "string"
        }
      ],
      "payable": false,
      "stateMutability": "view",
      "type": "function"
    },
    {
      "constant": true,
      "inputs": [],
      "name": "voterCount",
      "outputs": [
        {
          "internalType": "uint256",
          "name": "",
          "type": "uint256"
        }
      ],
      "payable": false,
      "stateMutability": "view",
      "type": "function"
    },
    {
      "constant": false,
      "inputs": [
        {
          "internalType": "string",
          "name": "_add",
          "type": "string"
        },
        {
          "internalType": "string",
          "name": "_adhaarNumber",
          "type": "string"
        },
        {
          "internalType": "string",
          "name": "_email",
          "type": "string"
        }
      ],
      "name": "registerUser",
      "outputs": [
        {
          "internalType": "uint256",
          "name": "",
          "type": "uint256"
        }
      ],
      "payable": false,
      "stateMutability": "nonpayable",
      "type": "function"
    },
    {
      "constant": false,
      "inputs": [
        {
          "internalType": "string",
          "name": "_adder",
          "type": "string"
        },
        {
          "internalType": "string",
          "name": "_partyName",
          "type": "string"
        },
        {
          "internalType": "string",
          "name": "_adhaar",
          "type": "string"
        },
        {
          "internalType": "string",
          "name": "_constituency",
          "type": "string"
        }
      ],
      "name": "generateVote",
      "outputs": [
        {
          "internalType": "uint256",
          "name": "",
          "type": "uint256"
        }
      ],
      "payable": false,
      "stateMutability": "nonpayable",
      "type": "function"
    },
    {
      "constant": false,
      "inputs": [
        {
          "internalType": "string",
          "name": "_name",
          "type": "string"
        }
      ],
      "name": "createParty",
      "outputs": [
        {
          "internalType": "uint256",
          "name": "",
          "type": "uint256"
        }
      ],
      "payable": false,
      "stateMutability": "nonpayable",
      "type": "function"
    },
    {
      "constant": false,
      "inputs": [],
      "name": "getAdminKey",
      "outputs": [
        {
          "internalType": "string",
          "name": "",
          "type": "string"
        }
      ],
      "payable": false,
      "stateMutability": "nonpayable",
      "type": "function"
    },
    {
      "constant": false,
      "inputs": [],
      "name": "getPartyCount",
      "outputs": [
        {
          "internalType": "uint256",
          "name": "",
          "type": "uint256"
        }
      ],
      "payable": false,
      "stateMutability": "nonpayable",
      "type": "function"
    },
    {
      "constant": false,
      "inputs": [
        {
          "internalType": "uint256",
          "name": "_id",
          "type": "uint256"
        }
      ],
      "name": "getNames",
      "outputs": [
        {
          "internalType": "uint256",
          "name": "",
          "type": "uint256"
        },
        {
          "internalType": "string",
          "name": "",
          "type": "string"
        }
      ],
      "payable": false,
      "stateMutability": "nonpayable",
      "type": "function"
    }
  ],
  "bytecode": "0x60806040526040518060400160405280600681526020017f3132333435360000000000000000000000000000000000000000000000000000815250600090805190602001906200005192919062000075565b506000600255600060045560006006553480156200006e57600080fd5b5062000124565b828054600181600116156101000203166002900490600052602060002090601f016020900481019282601f10620000b857805160ff1916838001178555620000e9565b82800160010185558215620000e9579182015b82811115620000e8578251825591602001919060010190620000cb565b5b509050620000f89190620000fc565b5090565b6200012191905b808211156200011d57600081600090555060010162000103565b5090565b90565b611a8e80620001346000396000f3fe608060405234801561001057600080fd5b50600436106100ce5760003560e01c80635718e17b1161008c578063b45fd78211610066578063b45fd7821461022e578063b8df43ae1461025f578063d1efd30d14610291578063d637dcfa146102af576100ce565b80635718e17b146101c157806360b960e5146101f25780639eb8e72514610210576100ce565b80624094db146100d357806320a6f49f14610103578063339d74a31461013357806338678ba51461016757806342169e48146101855780634834088b146101a3575b600080fd5b6100ed60048036036100e89190810190611447565b6102df565b6040516100fa919061181f565b60405180910390f35b61011d6004803603610118919081019061151f565b610399565b60405161012a919061181f565b60405180910390f35b61014d600480360361014891908101906115e2565b610521565b60405161015e9594939291906118d2565b60405180910390f35b61016f61071f565b60405161017c919061181f565b60405180910390f35b61018d610725565b60405161019a919061181f565b60405180910390f35b6101ab61072b565b6040516101b89190611705565b60405180910390f35b6101db60048036036101d691908101906115e2565b6107cd565b6040516101e992919061183a565b60405180910390f35b6101fa6108b2565b604051610207919061181f565b60405180910390f35b6102186108bc565b604051610225919061181f565b60405180910390f35b610248600480360361024391908101906115e2565b6108c2565b6040516102569291906117ef565b60405180910390f35b610279600480360361027491908101906115e2565b61097e565b604051610288939291906117a3565b60405180910390f35b610299610b70565b6040516102a691906116e3565b60405180910390f35b6102c960048036036102c49190810190611488565b610c0e565b6040516102d6919061181f565b60405180910390f35b60006102ea82610d12565b6102f357600080fd5b60046000815480929190600101919050555060405180604001604052808381526020016000815250600360006004548152602001908152602001600020600082015181600001908051906020019061034c929190611339565b50602082015181600101559050507f2b0eeee174d41d45c8b5c15a69654052c8d29819fe75dcf785bb428e343f065582600060405161038c929190611727565b60405180910390a1919050565b60006103a485610e4e565b156103ae57600080fd5b6103b783610f8a565b156103c157600080fd5b6103ca836110c6565b6103d357600080fd5b6103dc84610d12565b156103e657600080fd5b6002600081548092919060010191905055506040518060a0016040528060025481526020014281526020018581526020018481526020018381525060016000600254815260200190815260200160002060008201518160000155602082015181600101556040820151816002019080519060200190610466929190611339565b506060820151816003019080519060200190610483929190611339565b5060808201518160040190805190602001906104a0929190611339565b5090505060006104af85611202565b905060036000828152602001908152602001600020600101600081548092919060010191905055507f13c5e646d5829eacc1885d8609b921c6e6f30dcd63a0a7610a2ed75e6c86fae26002544287878760405161051095949392919061186a565b60405180910390a150949350505050565b6001602052806000526040600020600091509050806000015490806001015490806002018054600181600116156101000203166002900480601f0160208091040260200160405190810160405280929190818152602001828054600181600116156101000203166002900480156105d95780601f106105ae576101008083540402835291602001916105d9565b820191906000526020600020905b8154815290600101906020018083116105bc57829003601f168201915b505050505090806003018054600181600116156101000203166002900480601f0160208091040260200160405190810160405280929190818152602001828054600181600116156101000203166002900480156106775780601f1061064c57610100808354040283529160200191610677565b820191906000526020600020905b81548152906001019060200180831161065a57829003601f168201915b505050505090806004018054600181600116156101000203166002900480601f0160208091040260200160405190810160405280929190818152602001828054600181600116156101000203166002900480156107155780601f106106ea57610100808354040283529160200191610715565b820191906000526020600020905b8154815290600101906020018083116106f857829003601f168201915b5050505050905085565b60065481565b60025481565b606060008054600181600116156101000203166002900480601f0160208091040260200160405190810160405280929190818152602001828054600181600116156101000203166002900480156107c35780601f10610798576101008083540402835291602001916107c3565b820191906000526020600020905b8154815290600101906020018083116107a657829003601f168201915b5050505050905090565b600060606004548311156107e057600080fd5b600360008481526020019081526020016000206001015460036000858152602001908152602001600020600001808054600181600116156101000203166002900480601f0160208091040260200160405190810160405280929190818152602001828054600181600116156101000203166002900480156108a25780601f10610877576101008083540402835291602001916108a2565b820191906000526020600020905b81548152906001019060200180831161088557829003601f168201915b5050505050905091509150915091565b6000600454905090565b60045481565b6003602052806000526040600020600091509050806000018054600181600116156101000203166002900480601f01602080910402602001604051908101604052809291908181526020018280546001816001161561010002031660029004801561096e5780601f106109435761010080835404028352916020019161096e565b820191906000526020600020905b81548152906001019060200180831161095157829003601f168201915b5050505050908060010154905082565b6005602052806000526040600020600091509050806000018054600181600116156101000203166002900480601f016020809104026020016040519081016040528092919081815260200182805460018160011615610100020316600290048015610a2a5780601f106109ff57610100808354040283529160200191610a2a565b820191906000526020600020905b815481529060010190602001808311610a0d57829003601f168201915b505050505090806001018054600181600116156101000203166002900480601f016020809104026020016040519081016040528092919081815260200182805460018160011615610100020316600290048015610ac85780601f10610a9d57610100808354040283529160200191610ac8565b820191906000526020600020905b815481529060010190602001808311610aab57829003601f168201915b505050505090806002018054600181600116156101000203166002900480601f016020809104026020016040519081016040528092919081815260200182805460018160011615610100020316600290048015610b665780601f10610b3b57610100808354040283529160200191610b66565b820191906000526020600020905b815481529060010190602001808311610b4957829003601f168201915b5050505050905083565b60008054600181600116156101000203166002900480601f016020809104026020016040519081016040528092919081815260200182805460018160011615610100020316600290048015610c065780601f10610bdb57610100808354040283529160200191610c06565b820191906000526020600020905b815481529060010190602001808311610be957829003601f168201915b505050505081565b6000610c1984610e4e565b610c2257600080fd5b610c2b83610f8a565b610c3457600080fd5b6006600081548092919060010191905055506040518060600160405280858152602001848152602001838152506005600060065481526020019081526020016000206000820151816000019080519060200190610c92929190611339565b506020820151816001019080519060200190610caf929190611339565b506040820151816002019080519060200190610ccc929190611339565b509050507f133561d57163d827b6672878a1fbdd752b3d3a77b2170dca0fff4fdaf4dcfe44848484604051610d0393929190611757565b60405180910390a19392505050565b600080600190505b6004548111610e43576060600360008381526020019081526020016000206000018054600181600116156101000203166002900480601f016020809104026020016040519081016040528092919081815260200182805460018160011615610100020316600290048015610dcf5780601f10610da457610100808354040283529160200191610dcf565b820191906000526020600020905b815481529060010190602001808311610db257829003601f168201915b5050505050905083604051602001610de791906116cc565b6040516020818303038152906040528051906020012081604051602001610e0e91906116cc565b604051602081830303815290604052805190602001201415610e3557600092505050610e49565b508080600101915050610d1a565b50600190505b919050565b600080600190505b6006548111610f7f576060600560008381526020019081526020016000206000018054600181600116156101000203166002900480601f016020809104026020016040519081016040528092919081815260200182805460018160011615610100020316600290048015610f0b5780601f10610ee057610100808354040283529160200191610f0b565b820191906000526020600020905b815481529060010190602001808311610eee57829003601f168201915b5050505050905083604051602001610f2391906116cc565b6040516020818303038152906040528051906020012081604051602001610f4a91906116cc565b604051602081830303815290604052805190602001201415610f7157600092505050610f85565b508080600101915050610e56565b50600190505b919050565b600080600190505b60065481116110bb576060600560008381526020019081526020016000206001018054600181600116156101000203166002900480601f0160208091040260200160405190810160405280929190818152602001828054600181600116156101000203166002900480156110475780601f1061101c57610100808354040283529160200191611047565b820191906000526020600020905b81548152906001019060200180831161102a57829003601f168201915b505050505090508360405160200161105f91906116cc565b604051602081830303815290604052805190602001208160405160200161108691906116cc565b6040516020818303038152906040528051906020012014156110ad576000925050506110c1565b508080600101915050610f92565b50600190505b919050565b600080600190505b60025481116111f7576060600160008381526020019081526020016000206003018054600181600116156101000203166002900480601f0160208091040260200160405190810160405280929190818152602001828054600181600116156101000203166002900480156111835780601f1061115857610100808354040283529160200191611183565b820191906000526020600020905b81548152906001019060200180831161116657829003601f168201915b505050505090508360405160200161119b91906116cc565b60405160208183030381529060405280519060200120816040516020016111c291906116cc565b6040516020818303038152906040528051906020012014156111e9576000925050506111fd565b5080806001019150506110ce565b50600190505b919050565b600080600190505b6004548111611332576060600360008381526020019081526020016000206000018054600181600116156101000203166002900480601f0160208091040260200160405190810160405280929190818152602001828054600181600116156101000203166002900480156112bf5780601f10611294576101008083540402835291602001916112bf565b820191906000526020600020905b8154815290600101906020018083116112a257829003601f168201915b50505050509050836040516020016112d791906116cc565b60405160208183030381529060405280519060200120816040516020016112fe91906116cc565b604051602081830303815290604052805190602001201415611324578192505050611334565b50808060010191505061120a565b505b919050565b828054600181600116156101000203166002900490600052602060002090601f016020900481019282601f1061137a57805160ff19168380011785556113a8565b828001600101855582156113a8579182015b828111156113a757825182559160200191906001019061138c565b5b5090506113b591906113b9565b5090565b6113db91905b808211156113d75760008160009055506001016113bf565b5090565b90565b600082601f8301126113ef57600080fd5b81356114026113fd82611967565b61193a565b9150808252602083016020830185838301111561141e57600080fd5b6114298382846119e1565b50505092915050565b60008135905061144181611a34565b92915050565b60006020828403121561145957600080fd5b600082013567ffffffffffffffff81111561147357600080fd5b61147f848285016113de565b91505092915050565b60008060006060848603121561149d57600080fd5b600084013567ffffffffffffffff8111156114b757600080fd5b6114c3868287016113de565b935050602084013567ffffffffffffffff8111156114e057600080fd5b6114ec868287016113de565b925050604084013567ffffffffffffffff81111561150957600080fd5b611515868287016113de565b9150509250925092565b6000806000806080858703121561153557600080fd5b600085013567ffffffffffffffff81111561154f57600080fd5b61155b878288016113de565b945050602085013567ffffffffffffffff81111561157857600080fd5b611584878288016113de565b935050604085013567ffffffffffffffff8111156115a157600080fd5b6115ad878288016113de565b925050606085013567ffffffffffffffff8111156115ca57600080fd5b6115d6878288016113de565b91505092959194509250565b6000602082840312156115f457600080fd5b600061160284828501611432565b91505092915050565b611614816119cf565b82525050565b60006116258261199e565b61162f81856119a9565b935061163f8185602086016119f0565b61164881611a23565b840191505092915050565b600061165e8261199e565b61166881856119ba565b93506116788185602086016119f0565b80840191505092915050565b600061168f82611993565b61169981856119a9565b93506116a98185602086016119f0565b6116b281611a23565b840191505092915050565b6116c6816119c5565b82525050565b60006116d88284611653565b915081905092915050565b600060208201905081810360008301526116fd8184611684565b905092915050565b6000602082019050818103600083015261171f818461161a565b905092915050565b60006040820190508181036000830152611741818561161a565b9050611750602083018461160b565b9392505050565b60006060820190508181036000830152611771818661161a565b90508181036020830152611785818561161a565b90508181036040830152611799818461161a565b9050949350505050565b600060608201905081810360008301526117bd8186611684565b905081810360208301526117d18185611684565b905081810360408301526117e58184611684565b9050949350505050565b600060408201905081810360008301526118098185611684565b905061181860208301846116bd565b9392505050565b600060208201905061183460008301846116bd565b92915050565b600060408201905061184f60008301856116bd565b8181036020830152611861818461161a565b90509392505050565b600060a08201905061187f60008301886116bd565b61188c60208301876116bd565b818103604083015261189e818661161a565b905081810360608301526118b2818561161a565b905081810360808301526118c6818461161a565b90509695505050505050565b600060a0820190506118e760008301886116bd565b6118f460208301876116bd565b81810360408301526119068186611684565b9050818103606083015261191a8185611684565b9050818103608083015261192e8184611684565b90509695505050505050565b6000604051905081810181811067ffffffffffffffff8211171561195d57600080fd5b8060405250919050565b600067ffffffffffffffff82111561197e57600080fd5b601f19601f8301169050602081019050919050565b600081519050919050565b600081519050919050565b600082825260208201905092915050565b600081905092915050565b6000819050919050565b60006119da826119c5565b9050919050565b82818337600083830152505050565b60005b83811015611a0e5780820151818401526020810190506119f3565b83811115611a1d576000848401525b50505050565b6000601f19601f8301169050919050565b611a3d816119c5565b8114611a4857600080fd5b5056fea365627a7a72315820eedaf5b1be28cd8cd09c070a996b3f6b6a8aaa7c0e6c431275ecdbeee83e43a86c6578706572696d656e74616cf564736f6c63430005100040",
  "source": "pragma solidity >=0.4.21 <0.7.0;\r\npragma experimental ABIEncoderV2;\r\nimport \"./VoteLibrary.sol\";\r\n\r\ncontract VoteTracker\r\n{\r\n    string public secret = \"123456\";\r\n\r\n    mapping(uint => VoteLibrary.Vote) public VoteStore;\r\n    uint256 public voterCount = 0;\r\n\r\n    mapping(uint => VoteLibrary.Party) public PartyStore;\r\n    uint256 public partyCount = 0;\r\n\r\n    mapping(uint => VoteLibrary.Identity) public IdentityStore;\r\n    uint256 public identityCount = 0;\r\n\r\n    function registerUser(string memory _add, string memory _adhaarNumber, string memory _email) public returns(uint256)\r\n    {\r\n        require(checkIfAccCanExist(_add));\r\n        require(checkIfIdCanExist(_adhaarNumber));\r\n        identityCount++;\r\n        IdentityStore[identityCount] = VoteLibrary.Identity(_add,_adhaarNumber,_email);\r\n        emit IdentityCreate(_add,_adhaarNumber,_email);\r\n    }\r\n\r\n    function generateVote(string memory _adder, string memory _partyName, string memory _adhaar, string memory _constituency) public returns(uint256)\r\n    {\r\n        require(!checkIfAccCanExist(_adder));\r\n        require(!checkIfIdCanExist(_adhaar));\r\n        require(checkIfCanVote(_adhaar));\r\n        require(!checkIfCanExist(_partyName));\r\n        voterCount++;\r\n        VoteStore[voterCount] = VoteLibrary.Vote(voterCount, block.timestamp, _partyName, _adhaar, _constituency);\r\n        uint partyIndex = getParty(_partyName);\r\n        PartyStore[partyIndex].voteCount++;\r\n        emit VoteGenerate(voterCount, block.timestamp, _partyName, _adhaar, _constituency);\r\n    }\r\n    \r\n    function createParty(string memory _name) public returns(uint256)\r\n    {\r\n        require(checkIfCanExist(_name));\r\n        partyCount++;\r\n        PartyStore[partyCount] = VoteLibrary.Party(_name, 0);\r\n        emit PartyCreate(_name, 0);\r\n    }\r\n\r\n    function getAdminKey() public returns(string memory)\r\n    {\r\n        return secret;\r\n    }\r\n\r\n    function checkIfCanExist(string memory _namer) private returns(bool)\r\n    {\r\n        for(uint i=1;i<=partyCount;i++)\r\n        {\r\n            string memory partyNamed = PartyStore[i].name;\r\n            if(keccak256(abi.encodePacked((partyNamed))) == keccak256(abi.encodePacked((_namer))))\r\n            {\r\n                return false;\r\n            }\r\n        }\r\n        return true;\r\n    }\r\n\r\n    function checkIfIdCanExist(string memory _namered) private returns(bool)\r\n    {\r\n        for(uint i=1;i<=identityCount;i++)\r\n        {\r\n            string memory idNamed = IdentityStore[i].adhaarNumber;\r\n            if(keccak256(abi.encodePacked((idNamed))) == keccak256(abi.encodePacked((_namered))))\r\n            {\r\n                return false;\r\n            }\r\n        }\r\n        return true;\r\n    }\r\n\r\n    function checkIfAccCanExist(string memory _namerer) private returns(bool)\r\n    {\r\n        for(uint i=1;i<=identityCount;i++)\r\n        {\r\n            string memory idNamed = IdentityStore[i].add;\r\n            if(keccak256(abi.encodePacked((idNamed))) == keccak256(abi.encodePacked((_namerer))))\r\n            {\r\n                return false;\r\n            }\r\n        }\r\n        return true;\r\n    }\r\n\r\n    function checkIfCanVote(string memory _adhaarer) private returns(bool)\r\n    {\r\n        for(uint i=1;i<=voterCount;i++)\r\n        {\r\n            string memory voteNamed = VoteStore[i].adhaar;\r\n            if(keccak256(abi.encodePacked((voteNamed))) == keccak256(abi.encodePacked((_adhaarer))))\r\n            {\r\n                return false;\r\n            }\r\n        }\r\n        return true;\r\n    }\r\n\r\n    function getParty(string memory _partyNamer) private returns (uint)\r\n    {\r\n        for(uint i=1;i<=partyCount;i++)\r\n        {\r\n            string memory partyNamed = PartyStore[i].name;\r\n            if(keccak256(abi.encodePacked((partyNamed))) == keccak256(abi.encodePacked((_partyNamer))))\r\n            {\r\n                return i;\r\n            }\r\n        }\r\n    }\r\n\r\n    function getPartyCount() public returns (uint)\r\n    {\r\n        return partyCount;\r\n    }\r\n\r\n    function getNames(uint _id) public returns(uint,string memory)\r\n    {\r\n        require(_id<=partyCount);\r\n        return (PartyStore[_id].voteCount,PartyStore[_id].name);\r\n    }\r\n\r\n    event IdentityCreate(string add, string adhaarNumber, string email);\r\n    event PartyCreate(string name, uint voteCount);\r\n    event VoteGenerate(uint voteCount, uint time, string partyName, string adhaar, string constituency);\r\n}",
  "sourcePath": "C:\\Users\\yash pawar\\Desktop\\dapp\\E-Voting-dApp\\contracts\\VoteTracker.sol",
  "compiler": {
    "name": "solc",
    "version": "0.5.16+commit.9c3226ce.Emscripten.clang"
  },
  "schemaVersion": "3.4.13",
  "updatedAt": "2023-04-29T05:55:38.662Z",
  "devdoc": {
    "methods": {}
  },
  "userdoc": {
    "methods": {}
  }
}